{
  "contractName": "CrowdFunding",
  "abi": [
    {
      "inputs": [],
      "stateMutability": "nonpayable",
      "type": "constructor"
    },
    {
      "inputs": [],
      "name": "numCampaigns",
      "outputs": [
        {
          "internalType": "uint256",
          "name": "",
          "type": "uint256"
        }
      ],
      "stateMutability": "view",
      "type": "function",
      "constant": true
    },
    {
      "inputs": [
        {
          "internalType": "address payable",
          "name": "receiver",
          "type": "address"
        },
        {
          "internalType": "uint256",
          "name": "goal",
          "type": "uint256"
        }
      ],
      "name": "newCampaign",
      "outputs": [
        {
          "internalType": "uint256",
          "name": "campaginID",
          "type": "uint256"
        }
      ],
      "stateMutability": "nonpayable",
      "type": "function"
    },
    {
      "inputs": [
        {
          "internalType": "uint256",
          "name": "campaginID",
          "type": "uint256"
        }
      ],
      "name": "bid",
      "outputs": [],
      "stateMutability": "payable",
      "type": "function",
      "payable": true
    },
    {
      "inputs": [
        {
          "internalType": "uint256",
          "name": "campaginID",
          "type": "uint256"
        }
      ],
      "name": "withdraw",
      "outputs": [
        {
          "internalType": "bool",
          "name": "reached",
          "type": "bool"
        }
      ],
      "stateMutability": "payable",
      "type": "function",
      "payable": true
    }
  ],
  "bytecode": "0x60a060405234801561001057600080fd5b503360805260805161037b6100306000396000610236015261037b6000f3fe60806040526004361061003f5760003560e01c80632c0f7b6f146100445780632e1a7d4d1461006d578063454a2ab314610090578063f7572cf3146100a5575b600080fd5b34801561005057600080fd5b5061005a60005481565b6040519081526020015b60405180910390f35b61008061007b3660046102ac565b6100c5565b6040519015158152602001610064565b6100a361009e3660046102ac565b61013d565b005b3480156100b157600080fd5b5061005a6100c03660046102c5565b610229565b60008181526001602052604081206002810154600382015410156100ec5750600092915050565b600381018054600091829055825460405191926001600160a01b039091169183156108fc0291849190818181858888f19350505050158015610132573d6000803e3d6000fd5b506001949350505050565b6000818152600360209081526040808320338452909152902054819060ff161561016657600080fd5b600082815260016020526040812060038101805491923492610189908490610313565b9091555050600181810180546000906101a3908490610313565b90915550505060008281526002602081815260408084208151808301835233808252348286019081528354600180820186559489528689209351970290920180546001600160a01b0319166001600160a01b03909716969096178655905194820194909455958452600382528084209284529190529020805460ff191690921790915550565b6000336001600160a01b037f0000000000000000000000000000000000000000000000000000000000000000161461026057600080fd5b60008054908061026f8361032c565b90915550600081815260016020526040902080546001600160a01b0319166001600160a01b03959095169490941784556002909301919091555090565b6000602082840312156102be57600080fd5b5035919050565b600080604083850312156102d857600080fd5b82356001600160a01b03811681146102ef57600080fd5b946020939093013593505050565b634e487b7160e01b600052601160045260246000fd5b80820180821115610326576103266102fd565b92915050565b60006001820161033e5761033e6102fd565b506001019056fea26469706673582212201ce6b048eb73f0f9cac7f282ea23013a2eb9704e1426c958f05a4ba5186b405b64736f6c63430008130033",
  "immutableReferences": {
    "3": [
      {
        "length": 32,
        "start": 566
      }
    ]
  },
  "source": "// SPDX-License-Identifier: MIT\npragma solidity 0.8.19;\n\ncontract CrowdFunding {\n\n    address immutable owner;\n\n    constructor() {\n        owner = msg.sender;\n    }\n\n    struct Campaign {\n        address payable receiver;\n        uint numFunders;\n        uint fundingGoal;\n        uint totalAmount;\n    }\n\n    struct Funder {\n        address addr;\n        uint amount;\n    }\n\n    uint public numCampaigns;\n    mapping(uint => Campaign) campaigns;\n    mapping(uint => Funder[]) funders;\n\n    mapping(uint => mapping(address => bool)) campaignUserParticipated;\n\n    function newCampaign(address payable receiver, uint goal) external isOwner() returns(uint campaginID) {\n        campaginID = numCampaigns++;\n        Campaign storage c = campaigns[campaginID];\n        c.receiver = receiver;\n        c.fundingGoal = goal;\n    }\n\n    modifier judgeParticipate(uint campaginID) {\n        require(campaignUserParticipated[campaginID][msg.sender] == false);\n        _;\n    }\n\n    modifier isOwner() {\n        require(msg.sender == owner);\n        _;\n    }\n\n    function bid(uint campaginID) external payable judgeParticipate(campaginID) {\n        Campaign storage c = campaigns[campaginID];\n\n        c.totalAmount += msg.value;\n        c.numFunders += 1;\n\n        funders[campaginID].push(Funder({\n            addr: msg.sender,\n            amount: msg.value\n        }));\n\n        campaignUserParticipated[campaginID][msg.sender] = true;\n    }\n\n    function withdraw(uint campaginID) external payable returns(bool reached) {\n        Campaign storage c = campaigns[campaginID];\n\n        if (c.totalAmount < c.fundingGoal) {\n            return false;\n        }\n        uint amount = c.totalAmount;\n        c.totalAmount = 0;\n        c.receiver.transfer(amount);\n        return true;\n    }\n}\n",
  "sourcePath": "/Users/leixinxin/Sites/solidity_learning/contracts/CrowdFunding.sol",
  "compiler": {
    "name": "solc",
    "version": "0.8.19+commit.7dd6d404.Emscripten.clang"
  },
  "schemaVersion": "3.4.13",
  "updatedAt": "2023-03-31T08:19:49.673Z",
  "networkType": "ethereum",
  "devdoc": {
    "kind": "dev",
    "methods": {},
    "version": 1
  },
  "userdoc": {
    "kind": "user",
    "methods": {},
    "version": 1
  }
}