{
  "contractName": "CrowdFunding",
  "abi": [
    {
      "inputs": [],
      "stateMutability": "nonpayable",
      "type": "constructor"
    },
    {
      "anonymous": false,
      "inputs": [
        {
          "indexed": false,
          "internalType": "uint256",
          "name": "campaignId",
          "type": "uint256"
        },
        {
          "indexed": false,
          "internalType": "address",
          "name": "addr",
          "type": "address"
        },
        {
          "indexed": false,
          "internalType": "uint256",
          "name": "amount",
          "type": "uint256"
        }
      ],
      "name": "BidLog",
      "type": "event"
    },
    {
      "anonymous": false,
      "inputs": [
        {
          "indexed": false,
          "internalType": "uint256",
          "name": "campaignId",
          "type": "uint256"
        },
        {
          "indexed": false,
          "internalType": "address",
          "name": "receiver",
          "type": "address"
        },
        {
          "indexed": false,
          "internalType": "uint256",
          "name": "goal",
          "type": "uint256"
        }
      ],
      "name": "CampaignLog",
      "type": "event"
    },
    {
      "inputs": [
        {
          "internalType": "uint256",
          "name": "",
          "type": "uint256"
        }
      ],
      "name": "campaignArray",
      "outputs": [
        {
          "internalType": "address payable",
          "name": "receiver",
          "type": "address"
        },
        {
          "internalType": "uint256",
          "name": "numFunders",
          "type": "uint256"
        },
        {
          "internalType": "uint256",
          "name": "fundingGoal",
          "type": "uint256"
        },
        {
          "internalType": "uint256",
          "name": "totalAmount",
          "type": "uint256"
        }
      ],
      "stateMutability": "view",
      "type": "function"
    },
    {
      "inputs": [],
      "name": "numCampaigns",
      "outputs": [
        {
          "internalType": "uint256",
          "name": "",
          "type": "uint256"
        }
      ],
      "stateMutability": "view",
      "type": "function"
    },
    {
      "inputs": [
        {
          "internalType": "address payable",
          "name": "receiver",
          "type": "address"
        },
        {
          "internalType": "uint256",
          "name": "goal",
          "type": "uint256"
        }
      ],
      "name": "newCampaign",
      "outputs": [
        {
          "internalType": "uint256",
          "name": "campaginID",
          "type": "uint256"
        }
      ],
      "stateMutability": "nonpayable",
      "type": "function"
    },
    {
      "inputs": [
        {
          "internalType": "uint256",
          "name": "campaginID",
          "type": "uint256"
        }
      ],
      "name": "bid",
      "outputs": [],
      "stateMutability": "payable",
      "type": "function"
    },
    {
      "inputs": [
        {
          "internalType": "uint256",
          "name": "campaginID",
          "type": "uint256"
        }
      ],
      "name": "withdraw",
      "outputs": [
        {
          "internalType": "bool",
          "name": "reached",
          "type": "bool"
        }
      ],
      "stateMutability": "payable",
      "type": "function"
    }
  ],
  "bytecode": "0x60a060405234801561001057600080fd5b503360805260805161055a6100306000396000610312015261055a6000f3fe60806040526004361061004a5760003560e01c80632c0f7b6f1461004f5780632e1a7d4d14610078578063454a2ab31461009b578063e2eb57de146100b0578063f7572cf3146100fa575b600080fd5b34801561005b57600080fd5b5061006560005481565b6040519081526020015b60405180910390f35b61008b61008636600461048b565b61011a565b604051901515815260200161006f565b6100ae6100a936600461048b565b610192565b005b3480156100bc57600080fd5b506100d06100cb36600461048b565b6102c1565b604080516001600160a01b039095168552602085019390935291830152606082015260800161006f565b34801561010657600080fd5b506100656101153660046104a4565b610305565b60008181526001602052604081206002810154600382015410156101415750600092915050565b600381018054600091829055825460405191926001600160a01b039091169183156108fc0291849190818181858888f19350505050158015610187573d6000803e3d6000fd5b506001949350505050565b6000818152600460209081526040808320338452909152902054819060ff16156101bb57600080fd5b6000828152600160205260408120600381018054919234926101de9084906104f2565b9091555050600181810180546000906101f89084906104f2565b909155505060008381526003602090815260408083208151808301835233808252348286018181528454600180820187559589528789209451600290910290940180546001600160a01b0319166001600160a01b03909516949094178455519284019290925588865260048552838620818752855294839020805460ff19169092179091558151878152928301939093528101919091527f5da9b797a2e4e753d94227c956f7341dd3c87ff36dc13e728247a6e7f33dfb1d9060600160405180910390a1505050565b600281815481106102d157600080fd5b600091825260209091206004909102018054600182015460028301546003909301546001600160a01b039092169350919084565b6000336001600160a01b037f0000000000000000000000000000000000000000000000000000000000000000161461033c57600080fd5b60008054908061034b8361050b565b90915550600081815260016020818152604080842080546001600160a01b038a81166001600160a01b03199283168117845560028085018c81558154808a01835591909952845460049091027f405787fa12a823e0f2b7631cc41b3ba8828b3321ca811111fa75cd3aa3bb5ace810180549095169190931617909255948201547f405787fa12a823e0f2b7631cc41b3ba8828b3321ca811111fa75cd3aa3bb5acf86015594547f405787fa12a823e0f2b7631cc41b3ba8828b3321ca811111fa75cd3aa3bb5ad085015560038101547f405787fa12a823e0f2b7631cc41b3ba8828b3321ca811111fa75cd3aa3bb5ad1909401939093558051858152918201939093529182018590529192507fd5979c3bd81a7e1a390fc8030ec1389d2ef3309f57e15ff428366366c5fa226c9060600160405180910390a15092915050565b60006020828403121561049d57600080fd5b5035919050565b600080604083850312156104b757600080fd5b82356001600160a01b03811681146104ce57600080fd5b946020939093013593505050565b634e487b7160e01b600052601160045260246000fd5b80820180821115610505576105056104dc565b92915050565b60006001820161051d5761051d6104dc565b506001019056fea2646970667358221220f29b4a7d776121bd9a1df52fbd86d3fc47bf6295f761da006b2144f8937af85f64736f6c63430008130033",
  "immutableReferences": {
    "1140": [
      {
        "length": 32,
        "start": 786
      }
    ]
  },
  "source": "// SPDX-License-Identifier: MIT\npragma solidity 0.8.19;\n\ncontract CrowdFunding {\n    address immutable owner;\n\n    constructor() {\n        owner = msg.sender;\n    }\n\n    struct Campaign {\n        address payable receiver;\n        uint numFunders;\n        uint fundingGoal;\n        uint totalAmount;\n    }\n\n    struct Funder {\n        address addr;\n        uint amount;\n    }\n\n    uint public numCampaigns;\n    mapping(uint => Campaign) campaigns;\n\n    Campaign[] public campaignArray;\n    mapping(uint => Funder[]) funders;\n\n    mapping(uint => mapping(address => bool)) campaignUserParticipated;\n\n    event CampaignLog(uint campaignId, address receiver, uint goal);\n\n    event BidLog(uint campaignId, address addr, uint amount);\n\n    function newCampaign(\n        address payable receiver,\n        uint goal\n    ) external isOwner returns (uint campaginID) {\n        campaginID = numCampaigns++;\n        Campaign storage c = campaigns[campaginID];\n        c.receiver = receiver;\n        c.fundingGoal = goal;\n\n        campaignArray.push(c);\n        emit CampaignLog(campaginID, receiver, goal);\n    }\n\n    modifier judgeParticipate(uint campaginID) {\n        require(campaignUserParticipated[campaginID][msg.sender] == false);\n        _;\n    }\n\n    modifier isOwner() {\n        require(msg.sender == owner);\n        _;\n    }\n\n    function bid(\n        uint campaginID\n    ) external payable judgeParticipate(campaginID) {\n        Campaign storage c = campaigns[campaginID];\n\n        c.totalAmount += msg.value;\n        c.numFunders += 1;\n\n        funders[campaginID].push(Funder({addr: msg.sender, amount: msg.value}));\n\n        campaignUserParticipated[campaginID][msg.sender] = true;\n\n        emit BidLog(campaginID, msg.sender, msg.value);\n    }\n\n    function withdraw(uint campaginID) external payable returns (bool reached) {\n        Campaign storage c = campaigns[campaginID];\n\n        if (c.totalAmount < c.fundingGoal) {\n            return false;\n        }\n        uint amount = c.totalAmount;\n        c.totalAmount = 0;\n        c.receiver.transfer(amount);\n        return true;\n    }\n}\n",
  "sourcePath": "/Users/leixinxin/Sites/solidity_learning/contracts/CrowdFunding.sol",
  "compiler": {
    "name": "solc",
    "version": "0.8.19+commit.7dd6d404.Emscripten.clang"
  },
  "schemaVersion": "3.4.13",
  "updatedAt": "2023-04-21T08:56:46.622Z",
  "devdoc": {
    "kind": "dev",
    "methods": {},
    "version": 1
  },
  "userdoc": {
    "kind": "user",
    "methods": {},
    "version": 1
  }
}